{
  "contractName": "CapabilityToken",
  "abi": [
    {
      "inputs": [],
      "stateMutability": "nonpayable",
      "type": "constructor"
    },
    {
      "anonymous": false,
      "inputs": [
        {
          "indexed": false,
          "internalType": "uint256",
          "name": "tokenId",
          "type": "uint256"
        },
        {
          "indexed": true,
          "internalType": "address",
          "name": "newOwner",
          "type": "address"
        }
      ],
      "name": "TokenDelegated",
      "type": "event"
    },
    {
      "anonymous": false,
      "inputs": [
        {
          "indexed": false,
          "internalType": "uint256",
          "name": "tokenId",
          "type": "uint256"
        },
        {
          "indexed": true,
          "internalType": "address",
          "name": "owner",
          "type": "address"
        },
        {
          "indexed": false,
          "internalType": "string",
          "name": "resource",
          "type": "string"
        },
        {
          "indexed": false,
          "internalType": "uint256",
          "name": "expiry",
          "type": "uint256"
        }
      ],
      "name": "TokenIssued",
      "type": "event"
    },
    {
      "anonymous": false,
      "inputs": [
        {
          "indexed": false,
          "internalType": "uint256",
          "name": "tokenId",
          "type": "uint256"
        }
      ],
      "name": "TokenRevoked",
      "type": "event"
    },
    {
      "inputs": [],
      "name": "admin",
      "outputs": [
        {
          "internalType": "address",
          "name": "",
          "type": "address"
        }
      ],
      "stateMutability": "view",
      "type": "function",
      "constant": true
    },
    {
      "inputs": [],
      "name": "tokenCounter",
      "outputs": [
        {
          "internalType": "uint256",
          "name": "",
          "type": "uint256"
        }
      ],
      "stateMutability": "view",
      "type": "function",
      "constant": true
    },
    {
      "inputs": [
        {
          "internalType": "uint256",
          "name": "",
          "type": "uint256"
        }
      ],
      "name": "tokens",
      "outputs": [
        {
          "internalType": "address",
          "name": "owner",
          "type": "address"
        },
        {
          "internalType": "string",
          "name": "resource",
          "type": "string"
        },
        {
          "internalType": "uint256",
          "name": "expiry",
          "type": "uint256"
        },
        {
          "internalType": "bool",
          "name": "valid",
          "type": "bool"
        }
      ],
      "stateMutability": "view",
      "type": "function",
      "constant": true
    },
    {
      "inputs": [
        {
          "internalType": "address",
          "name": "to",
          "type": "address"
        },
        {
          "internalType": "string",
          "name": "resource",
          "type": "string"
        },
        {
          "internalType": "uint256",
          "name": "duration",
          "type": "uint256"
        }
      ],
      "name": "issueToken",
      "outputs": [
        {
          "internalType": "uint256",
          "name": "",
          "type": "uint256"
        }
      ],
      "stateMutability": "nonpayable",
      "type": "function"
    },
    {
      "inputs": [
        {
          "internalType": "uint256",
          "name": "tokenId",
          "type": "uint256"
        }
      ],
      "name": "revokeToken",
      "outputs": [],
      "stateMutability": "nonpayable",
      "type": "function"
    },
    {
      "inputs": [
        {
          "internalType": "uint256",
          "name": "tokenId",
          "type": "uint256"
        }
      ],
      "name": "isTokenValid",
      "outputs": [
        {
          "internalType": "bool",
          "name": "",
          "type": "bool"
        }
      ],
      "stateMutability": "view",
      "type": "function",
      "constant": true
    },
    {
      "inputs": [
        {
          "internalType": "uint256",
          "name": "tokenId",
          "type": "uint256"
        },
        {
          "internalType": "address",
          "name": "newOwner",
          "type": "address"
        }
      ],
      "name": "delegateToken",
      "outputs": [],
      "stateMutability": "nonpayable",
      "type": "function"
    }
  ],
  "bytecode": "0x608060405234801561001057600080fd5b50600280546001600160a01b03191633179055610885806100326000396000f3fe608060405234801561001057600080fd5b506004361061007d5760003560e01c8063c92243d81161005b578063c92243d8146100e3578063d082e38114610103578063f851a4401461010b578063fc75dade146101205761007d565b80634f64b2be146100825780637dc9e79b146100ae5780639f9750a9146100c3575b600080fd5b610095610090366004610608565b610133565b6040516100a594939291906106aa565b60405180910390f35b6100c16100bc366004610608565b6101f2565b005b6100d66100d136600461054c565b6102aa565b6040516100a59190610783565b6100f66100f1366004610608565b6103b6565b6040516100a591906106e6565b6100d66103ef565b6101136103f5565b6040516100a59190610696565b6100c161012e366004610620565b610404565b600060208190529081526040902080546001820180546001600160a01b03909216929161015f906107cd565b80601f016020809104026020016040519081016040528092919081815260200182805461018b906107cd565b80156101d85780601f106101ad576101008083540402835291602001916101d8565b820191906000526020600020905b8154815290600101906020018083116101bb57829003601f168201915b50505050600283015460039093015491929160ff16905084565b6002546001600160a01b031633146102255760405162461bcd60e51b815260040161021c9061074c565b60405180910390fd5b60008181526020819052604090206003015460ff166102565760405162461bcd60e51b815260040161021c9061071d565b60008181526020819052604090819020600301805460ff19169055517fdd1d49ebfce788b875cea0c153d8c2714b07c405b7cb2ed4989f22df886da0ba9061029f908390610783565b60405180910390a150565b60018054600091829190826102be83610808565b9190505590506040518060800160405280866001600160a01b0316815260200185815260200184426102f091906107b5565b815260016020918201819052600084815280835260409020835181546001600160a01b0319166001600160a01b03909116178155838301518051919361033b9385019291019061049c565b50604082015160028201556060909101516003909101805460ff19169115159190911790556001600160a01b0385167fef49a1d15c23631166ad74c166c00a2d0e47d0c15daf8c21f98d753978437c40828661039787426107b5565b6040516103a69392919061078c565b60405180910390a2949350505050565b60008181526020819052604081206003015460ff1680156103e7575060008281526020819052604090206002015442105b90505b919050565b60015481565b6002546001600160a01b031681565b60008281526020819052604090206003015460ff166104355760405162461bcd60e51b815260040161021c906106f1565b6000828152602081905260409081902080546001600160a01b0319166001600160a01b03841690811790915590517fcd57880fa6fb6b4aedb77272d2cfa8d03186b5034f9b672ccfcd3cd6edfecc9b90610490908590610783565b60405180910390a25050565b8280546104a8906107cd565b90600052602060002090601f0160209004810192826104ca5760008555610510565b82601f106104e357805160ff1916838001178555610510565b82800160010185558215610510579182015b828111156105105782518255916020019190600101906104f5565b5061051c929150610520565b5090565b5b8082111561051c5760008155600101610521565b80356001600160a01b03811681146103ea57600080fd5b600080600060608486031215610560578283fd5b61056984610535565b925060208085013567ffffffffffffffff80821115610586578485fd5b818701915087601f830112610599578485fd5b8135818111156105ab576105ab610839565b604051601f8201601f19168101850183811182821017156105ce576105ce610839565b60405281815283820185018a10156105e4578687fd5b81858501868301379081019093019490945250929592945050506040919091013590565b600060208284031215610619578081fd5b5035919050565b60008060408385031215610632578182fd5b8235915061064260208401610535565b90509250929050565b60008151808452815b8181101561067057602081850181015186830182015201610654565b818111156106815782602083870101525b50601f01601f19169290920160200192915050565b6001600160a01b0391909116815260200190565b6001600160a01b03851681526080602082018190526000906106ce9083018661064b565b60408301949094525090151560609091015292915050565b901515815260200190565b602080825260129082015271151bdad95b881a5cc81b9bdd081d985b1a5960721b604082015260600190565b602080825260159082015274151bdad95b88185b1c9958591e481c995d9bdad959605a1b604082015260600190565b6020808252601c908201527f4f6e6c792061646d696e2063616e207265766f6b6520746f6b656e7300000000604082015260600190565b90815260200190565b6000848252606060208301526107a5606083018561064b565b9050826040830152949350505050565b600082198211156107c8576107c8610823565b500190565b6002810460018216806107e157607f821691505b6020821081141561080257634e487b7160e01b600052602260045260246000fd5b50919050565b600060001982141561081c5761081c610823565b5060010190565b634e487b7160e01b600052601160045260246000fd5b634e487b7160e01b600052604160045260246000fdfea26469706673582212200e50371a98182852e404eef5a9991e1260b229cbb248f7356ad39f0e491d2f4364736f6c63430008000033",
  "immutableReferences": {},
  "source": "// SPDX-License-Identifier: MIT\r\npragma solidity ^0.8.0;\r\n\r\ncontract CapabilityToken {\r\n    struct Token {\r\n        address owner;\r\n        string resource;\r\n        uint256 expiry;\r\n        bool valid;\r\n    }\r\n\r\n    mapping(uint256 => Token) public tokens;\r\n    uint256 public tokenCounter;\r\n    address public admin;\r\n\r\n    event TokenIssued(uint256 tokenId, address indexed owner, string resource, uint256 expiry);\r\n    event TokenRevoked(uint256 tokenId);\r\n    event TokenDelegated(uint256 tokenId, address indexed newOwner);\r\n\r\n    constructor() {\r\n        admin = msg.sender; // Set the deployer as the admin\r\n    }\r\n\r\n    modifier onlyAdmin() {\r\n        require(msg.sender == admin, \"Only admin can revoke tokens\");\r\n        _;\r\n    }\r\n\r\n    function issueToken(address to, string memory resource, uint256 duration) public returns (uint256) {\r\n        uint256 tokenId = tokenCounter++;\r\n        tokens[tokenId] = Token(to, resource, block.timestamp + duration, true);\r\n        emit TokenIssued(tokenId, to, resource, block.timestamp + duration);\r\n        return tokenId;\r\n    }\r\n\r\n    function revokeToken(uint256 tokenId) public onlyAdmin {\r\n        require(tokens[tokenId].valid, \"Token already revoked\");\r\n        tokens[tokenId].valid = false;\r\n        emit TokenRevoked(tokenId);\r\n    }\r\n\r\n    function isTokenValid(uint256 tokenId) public view returns (bool) {\r\n        return tokens[tokenId].valid && tokens[tokenId].expiry > block.timestamp;\r\n    }\r\n\r\n    function delegateToken(uint256 tokenId, address newOwner) public {\r\n        require(tokens[tokenId].valid, \"Token is not valid\");\r\n        tokens[tokenId].owner = newOwner;\r\n        emit TokenDelegated(tokenId, newOwner);\r\n    }\r\n}\r\n",
  "sourcePath": "C:\\Users\\ABHISHEK\\Documents\\Projects\\RBAC\\contracts\\CapabilityToken.sol",
  "compiler": {
    "name": "solc",
    "version": "0.8.0+commit.c7dfd78e.Emscripten.clang"
  },
  "schemaVersion": "3.4.16",
  "updatedAt": "2025-02-26T18:30:29.031Z",
  "networkType": "ethereum",
  "devdoc": {
    "kind": "dev",
    "methods": {},
    "version": 1
  },
  "userdoc": {
    "kind": "user",
    "methods": {},
    "version": 1
  }
}