{
  "contractName": "CapabilityToken",
  "abi": [
    {
      "anonymous": false,
      "inputs": [
        {
          "indexed": false,
          "internalType": "uint256",
          "name": "tokenId",
          "type": "uint256"
        },
        {
          "indexed": true,
          "internalType": "address",
          "name": "newOwner",
          "type": "address"
        }
      ],
      "name": "TokenDelegated",
      "type": "event"
    },
    {
      "anonymous": false,
      "inputs": [
        {
          "indexed": false,
          "internalType": "uint256",
          "name": "tokenId",
          "type": "uint256"
        },
        {
          "indexed": true,
          "internalType": "address",
          "name": "owner",
          "type": "address"
        },
        {
          "indexed": false,
          "internalType": "string",
          "name": "resource",
          "type": "string"
        },
        {
          "indexed": false,
          "internalType": "uint256",
          "name": "expiry",
          "type": "uint256"
        }
      ],
      "name": "TokenIssued",
      "type": "event"
    },
    {
      "anonymous": false,
      "inputs": [
        {
          "indexed": false,
          "internalType": "uint256",
          "name": "tokenId",
          "type": "uint256"
        }
      ],
      "name": "TokenRevoked",
      "type": "event"
    },
    {
      "inputs": [],
      "name": "tokenCounter",
      "outputs": [
        {
          "internalType": "uint256",
          "name": "",
          "type": "uint256"
        }
      ],
      "stateMutability": "view",
      "type": "function",
      "constant": true
    },
    {
      "inputs": [
        {
          "internalType": "uint256",
          "name": "",
          "type": "uint256"
        }
      ],
      "name": "tokens",
      "outputs": [
        {
          "internalType": "address",
          "name": "owner",
          "type": "address"
        },
        {
          "internalType": "string",
          "name": "resource",
          "type": "string"
        },
        {
          "internalType": "uint256",
          "name": "expiry",
          "type": "uint256"
        },
        {
          "internalType": "bool",
          "name": "valid",
          "type": "bool"
        }
      ],
      "stateMutability": "view",
      "type": "function",
      "constant": true
    },
    {
      "inputs": [
        {
          "internalType": "address",
          "name": "to",
          "type": "address"
        },
        {
          "internalType": "string",
          "name": "resource",
          "type": "string"
        },
        {
          "internalType": "uint256",
          "name": "duration",
          "type": "uint256"
        }
      ],
      "name": "issueToken",
      "outputs": [
        {
          "internalType": "uint256",
          "name": "",
          "type": "uint256"
        }
      ],
      "stateMutability": "nonpayable",
      "type": "function"
    },
    {
      "inputs": [
        {
          "internalType": "uint256",
          "name": "tokenId",
          "type": "uint256"
        }
      ],
      "name": "revokeToken",
      "outputs": [],
      "stateMutability": "nonpayable",
      "type": "function"
    },
    {
      "inputs": [
        {
          "internalType": "uint256",
          "name": "tokenId",
          "type": "uint256"
        }
      ],
      "name": "isTokenValid",
      "outputs": [
        {
          "internalType": "bool",
          "name": "",
          "type": "bool"
        }
      ],
      "stateMutability": "view",
      "type": "function",
      "constant": true
    },
    {
      "inputs": [
        {
          "internalType": "uint256",
          "name": "tokenId",
          "type": "uint256"
        },
        {
          "internalType": "address",
          "name": "newOwner",
          "type": "address"
        }
      ],
      "name": "delegateToken",
      "outputs": [],
      "stateMutability": "nonpayable",
      "type": "function"
    }
  ],
  "bytecode": "0x608060405234801561001057600080fd5b506107d1806100206000396000f3fe608060405234801561001057600080fd5b50600436106100625760003560e01c80634f64b2be146100675780637dc9e79b146100935780639f9750a9146100a8578063c92243d8146100c8578063d082e381146100e8578063fc75dade146100f0575b600080fd5b61007a61007536600461059f565b610103565b60405161008a949392919061062d565b60405180910390f35b6100a66100a136600461059f565b6101c2565b005b6100bb6100b63660046104e3565b610250565b60405161008a91906106cf565b6100db6100d636600461059f565b61035c565b60405161008a9190610669565b6100bb610395565b6100a66100fe3660046105b7565b61039b565b600060208190529081526040902080546001820180546001600160a01b03909216929161012f90610719565b80601f016020809104026020016040519081016040528092919081815260200182805461015b90610719565b80156101a85780601f1061017d576101008083540402835291602001916101a8565b820191906000526020600020905b81548152906001019060200180831161018b57829003601f168201915b50505050600283015460039093015491929160ff16905084565b60008181526020819052604090206003015460ff166101fc5760405162461bcd60e51b81526004016101f3906106a0565b60405180910390fd5b60008181526020819052604090819020600301805460ff19169055517fdd1d49ebfce788b875cea0c153d8c2714b07c405b7cb2ed4989f22df886da0ba906102459083906106cf565b60405180910390a150565b600180546000918291908261026483610754565b9190505590506040518060800160405280866001600160a01b0316815260200185815260200184426102969190610701565b815260016020918201819052600084815280835260409020835181546001600160a01b0319166001600160a01b0390911617815583830151805191936102e193850192910190610433565b50604082015160028201556060909101516003909101805460ff19169115159190911790556001600160a01b0385167fef49a1d15c23631166ad74c166c00a2d0e47d0c15daf8c21f98d753978437c40828661033d8742610701565b60405161034c939291906106d8565b60405180910390a2949350505050565b60008181526020819052604081206003015460ff16801561038d575060008281526020819052604090206002015442105b90505b919050565b60015481565b60008281526020819052604090206003015460ff166103cc5760405162461bcd60e51b81526004016101f390610674565b6000828152602081905260409081902080546001600160a01b0319166001600160a01b03841690811790915590517fcd57880fa6fb6b4aedb77272d2cfa8d03186b5034f9b672ccfcd3cd6edfecc9b906104279085906106cf565b60405180910390a25050565b82805461043f90610719565b90600052602060002090601f01602090048101928261046157600085556104a7565b82601f1061047a57805160ff19168380011785556104a7565b828001600101855582156104a7579182015b828111156104a757825182559160200191906001019061048c565b506104b39291506104b7565b5090565b5b808211156104b357600081556001016104b8565b80356001600160a01b038116811461039057600080fd5b6000806000606084860312156104f7578283fd5b610500846104cc565b925060208085013567ffffffffffffffff8082111561051d578485fd5b818701915087601f830112610530578485fd5b81358181111561054257610542610785565b604051601f8201601f191681018501838111828210171561056557610565610785565b60405281815283820185018a101561057b578687fd5b81858501868301379081019093019490945250929592945050506040919091013590565b6000602082840312156105b0578081fd5b5035919050565b600080604083850312156105c9578182fd5b823591506105d9602084016104cc565b90509250929050565b60008151808452815b81811015610607576020818501810151868301820152016105eb565b818111156106185782602083870101525b50601f01601f19169290920160200192915050565b6001600160a01b0385168152608060208201819052600090610651908301866105e2565b60408301949094525090151560609091015292915050565b901515815260200190565b602080825260129082015271151bdad95b881a5cc81b9bdd081d985b1a5960721b604082015260600190565b602080825260159082015274151bdad95b88185b1c9958591e481c995d9bdad959605a1b604082015260600190565b90815260200190565b6000848252606060208301526106f160608301856105e2565b9050826040830152949350505050565b600082198211156107145761071461076f565b500190565b60028104600182168061072d57607f821691505b6020821081141561074e57634e487b7160e01b600052602260045260246000fd5b50919050565b60006000198214156107685761076861076f565b5060010190565b634e487b7160e01b600052601160045260246000fd5b634e487b7160e01b600052604160045260246000fdfea2646970667358221220dd4a23724e220312a1a1005b7259f7e2402dd37184dc4a1de4af1317eed1ac5064736f6c63430008000033",
  "immutableReferences": {},
  "source": "// SPDX-License-Identifier: MIT\r\npragma solidity ^0.8.0;\r\n\r\ncontract CapabilityToken {\r\n    struct Token {\r\n        address owner;\r\n        string resource;\r\n        uint256 expiry;\r\n        bool valid;\r\n    }\r\n\r\n    mapping(uint256 => Token) public tokens;\r\n    uint256 public tokenCounter;\r\n\r\n    event TokenIssued(uint256 tokenId, address indexed owner, string resource, uint256 expiry);\r\n    event TokenRevoked(uint256 tokenId);\r\n    event TokenDelegated(uint256 tokenId, address indexed newOwner);\r\n\r\n    function issueToken(address to, string memory resource, uint256 duration) public returns (uint256) {\r\n        uint256 tokenId = tokenCounter++;\r\n        tokens[tokenId] = Token(to, resource, block.timestamp + duration, true);\r\n        emit TokenIssued(tokenId, to, resource, block.timestamp + duration);\r\n        return tokenId;\r\n    }\r\n\r\n    function revokeToken(uint256 tokenId) public {\r\n        require(tokens[tokenId].valid, \"Token already revoked\");\r\n        tokens[tokenId].valid = false;\r\n        emit TokenRevoked(tokenId);\r\n    }\r\n\r\n    function isTokenValid(uint256 tokenId) public view returns (bool) {\r\n        return tokens[tokenId].valid && tokens[tokenId].expiry > block.timestamp;\r\n    }\r\n\r\n    function delegateToken(uint256 tokenId, address newOwner) public {\r\n        require(tokens[tokenId].valid, \"Token is not valid\");\r\n        tokens[tokenId].owner = newOwner;\r\n        emit TokenDelegated(tokenId, newOwner);\r\n    }\r\n}",
  "sourcePath": "D:\\Working\\Personel\\hOME\\Engineering\\blockchain-app\\contracts\\CapabilityToken.sol",
  "compiler": {
    "name": "solc",
    "version": "0.8.0+commit.c7dfd78e.Emscripten.clang"
  },
  "schemaVersion": "3.4.16",
  "updatedAt": "2025-02-17T17:17:29.376Z",
  "networkType": "ethereum",
  "devdoc": {
    "kind": "dev",
    "methods": {},
    "version": 1
  },
  "userdoc": {
    "kind": "user",
    "methods": {},
    "version": 1
  }
}