{
  "contractName": "CapabilityToken",
  "abi": [
    {
      "inputs": [],
      "stateMutability": "nonpayable",
      "type": "constructor"
    },
    {
      "anonymous": false,
      "inputs": [
        {
          "indexed": false,
          "internalType": "uint256",
          "name": "tokenId",
          "type": "uint256"
        },
        {
          "indexed": true,
          "internalType": "address",
          "name": "newOwner",
          "type": "address"
        }
      ],
      "name": "TokenDelegated",
      "type": "event"
    },
    {
      "anonymous": false,
      "inputs": [
        {
          "indexed": false,
          "internalType": "uint256",
          "name": "tokenId",
          "type": "uint256"
        },
        {
          "indexed": true,
          "internalType": "address",
          "name": "owner",
          "type": "address"
        },
        {
          "indexed": false,
          "internalType": "string",
          "name": "resource",
          "type": "string"
        },
        {
          "indexed": false,
          "internalType": "uint256",
          "name": "expiry",
          "type": "uint256"
        }
      ],
      "name": "TokenIssued",
      "type": "event"
    },
    {
      "anonymous": false,
      "inputs": [
        {
          "indexed": false,
          "internalType": "uint256",
          "name": "tokenId",
          "type": "uint256"
        }
      ],
      "name": "TokenRevoked",
      "type": "event"
    },
    {
      "inputs": [],
      "name": "admin",
      "outputs": [
        {
          "internalType": "address",
          "name": "",
          "type": "address"
        }
      ],
      "stateMutability": "view",
      "type": "function",
      "constant": true
    },
    {
      "inputs": [],
      "name": "tokenCounter",
      "outputs": [
        {
          "internalType": "uint256",
          "name": "",
          "type": "uint256"
        }
      ],
      "stateMutability": "view",
      "type": "function",
      "constant": true
    },
    {
      "inputs": [
        {
          "internalType": "uint256",
          "name": "",
          "type": "uint256"
        }
      ],
      "name": "tokens",
      "outputs": [
        {
          "internalType": "address",
          "name": "owner",
          "type": "address"
        },
        {
          "internalType": "string",
          "name": "resource",
          "type": "string"
        },
        {
          "internalType": "uint256",
          "name": "expiry",
          "type": "uint256"
        },
        {
          "internalType": "bool",
          "name": "valid",
          "type": "bool"
        }
      ],
      "stateMutability": "view",
      "type": "function",
      "constant": true
    },
    {
      "inputs": [
        {
          "internalType": "address",
          "name": "to",
          "type": "address"
        },
        {
          "internalType": "string",
          "name": "resource",
          "type": "string"
        },
        {
          "internalType": "uint256",
          "name": "duration",
          "type": "uint256"
        }
      ],
      "name": "issueToken",
      "outputs": [
        {
          "internalType": "uint256",
          "name": "",
          "type": "uint256"
        }
      ],
      "stateMutability": "nonpayable",
      "type": "function"
    },
    {
      "inputs": [
        {
          "internalType": "uint256",
          "name": "tokenId",
          "type": "uint256"
        }
      ],
      "name": "revokeToken",
      "outputs": [],
      "stateMutability": "nonpayable",
      "type": "function"
    },
    {
      "inputs": [
        {
          "internalType": "uint256",
          "name": "tokenId",
          "type": "uint256"
        }
      ],
      "name": "getTokenExpiry",
      "outputs": [
        {
          "internalType": "uint256",
          "name": "",
          "type": "uint256"
        }
      ],
      "stateMutability": "view",
      "type": "function",
      "constant": true
    },
    {
      "inputs": [
        {
          "internalType": "uint256",
          "name": "tokenId",
          "type": "uint256"
        }
      ],
      "name": "isTokenValid",
      "outputs": [
        {
          "internalType": "bool",
          "name": "",
          "type": "bool"
        }
      ],
      "stateMutability": "view",
      "type": "function",
      "constant": true
    },
    {
      "inputs": [
        {
          "internalType": "uint256",
          "name": "tokenId",
          "type": "uint256"
        },
        {
          "internalType": "address",
          "name": "newOwner",
          "type": "address"
        }
      ],
      "name": "delegateToken",
      "outputs": [],
      "stateMutability": "nonpayable",
      "type": "function"
    }
  ],
  "bytecode": "0x608060405234801561001057600080fd5b50600280546001600160a01b0319163317905561091b806100326000396000f3fe608060405234801561001057600080fd5b50600436106100885760003560e01c8063d082e3811161005b578063d082e3811461010e578063e381654714610116578063f851a44014610129578063fc75dade1461013e57610088565b80634f64b2be1461008d5780637dc9e79b146100b95780639f9750a9146100ce578063c92243d8146100ee575b600080fd5b6100a061009b36600461065a565b610151565b6040516100b094939291906106fc565b60405180910390f35b6100cc6100c736600461065a565b610210565b005b6100e16100dc36600461059e565b6102e0565b6040516100b09190610819565b6101016100fc36600461065a565b6103ec565b6040516100b09190610738565b6100e161042c565b6100e161012436600461065a565b610432565b610131610447565b6040516100b091906106e8565b6100cc61014c366004610672565b610456565b600060208190529081526040902080546001820180546001600160a01b03909216929161017d90610863565b80601f01602080910402602001604051908101604052809291908181526020018280546101a990610863565b80156101f65780601f106101cb576101008083540402835291602001916101f6565b820191906000526020600020905b8154815290600101906020018083116101d957829003601f168201915b50505050600283015460039093015491929160ff16905084565b6002546001600160a01b031633146102435760405162461bcd60e51b815260040161023a906107e2565b60405180910390fd5b6000818152602081905260409020600381015460ff166102755760405162461bcd60e51b815260040161023a906107b3565b428160020154116102985760405162461bcd60e51b815260040161023a90610743565b60038101805460ff191690556040517fdd1d49ebfce788b875cea0c153d8c2714b07c405b7cb2ed4989f22df886da0ba906102d4908490610819565b60405180910390a15050565b60018054600091829190826102f48361089e565b9190505590506040518060800160405280866001600160a01b031681526020018581526020018442610326919061084b565b815260016020918201819052600084815280835260409020835181546001600160a01b0319166001600160a01b039091161781558383015180519193610371938501929101906104ee565b50604082015160028201556060909101516003909101805460ff19169115159190911790556001600160a01b0385167fef49a1d15c23631166ad74c166c00a2d0e47d0c15daf8c21f98d753978437c4082866103cd874261084b565b6040516103dc93929190610822565b60405180910390a2949350505050565b6000818152602081905260408120600381015460ff161580610412575042816002015411155b15610421576000915050610427565b60019150505b919050565b60015481565b60009081526020819052604090206002015490565b6002546001600160a01b031681565b60008281526020819052604090206003015460ff166104875760405162461bcd60e51b815260040161023a90610787565b6000828152602081905260409081902080546001600160a01b0319166001600160a01b03841690811790915590517fcd57880fa6fb6b4aedb77272d2cfa8d03186b5034f9b672ccfcd3cd6edfecc9b906104e2908590610819565b60405180910390a25050565b8280546104fa90610863565b90600052602060002090601f01602090048101928261051c5760008555610562565b82601f1061053557805160ff1916838001178555610562565b82800160010185558215610562579182015b82811115610562578251825591602001919060010190610547565b5061056e929150610572565b5090565b5b8082111561056e5760008155600101610573565b80356001600160a01b038116811461042757600080fd5b6000806000606084860312156105b2578283fd5b6105bb84610587565b925060208085013567ffffffffffffffff808211156105d8578485fd5b818701915087601f8301126105eb578485fd5b8135818111156105fd576105fd6108cf565b604051601f8201601f1916810185018381118282101715610620576106206108cf565b60405281815283820185018a1015610636578687fd5b81858501868301379081019093019490945250929592945050506040919091013590565b60006020828403121561066b578081fd5b5035919050565b60008060408385031215610684578182fd5b8235915061069460208401610587565b90509250929050565b60008151808452815b818110156106c2576020818501810151868301820152016106a6565b818111156106d35782602083870101525b50601f01601f19169290920160200192915050565b6001600160a01b0391909116815260200190565b6001600160a01b03851681526080602082018190526000906107209083018661069d565b60408301949094525090151560609091015292915050565b901515815260200190565b60208082526024908201527f546f6b656e20616c726561647920657870697265642c2063616e6e6f74207265604082015263766f6b6560e01b606082015260800190565b602080825260129082015271151bdad95b881a5cc81b9bdd081d985b1a5960721b604082015260600190565b602080825260159082015274151bdad95b88185b1c9958591e481c995d9bdad959605a1b604082015260600190565b6020808252601c908201527f4f6e6c792061646d696e2063616e207265766f6b6520746f6b656e7300000000604082015260600190565b90815260200190565b60008482526060602083015261083b606083018561069d565b9050826040830152949350505050565b6000821982111561085e5761085e6108b9565b500190565b60028104600182168061087757607f821691505b6020821081141561089857634e487b7160e01b600052602260045260246000fd5b50919050565b60006000198214156108b2576108b26108b9565b5060010190565b634e487b7160e01b600052601160045260246000fd5b634e487b7160e01b600052604160045260246000fdfea2646970667358221220400b09b911a3ac8676f8057e806f0d68681ab8f3e52b02eebe173f60db6bef0a64736f6c63430008000033",
  "immutableReferences": {},
  "source": "// SPDX-License-Identifier: MIT\r\npragma solidity ^0.8.0;\r\n\r\ncontract CapabilityToken {\r\n    struct Token {\r\n        address owner;\r\n        string resource;\r\n        uint256 expiry;\r\n        bool valid;\r\n    }\r\n\r\n    mapping(uint256 => Token) public tokens;\r\n    uint256 public tokenCounter;\r\n    address public admin;\r\n\r\n    event TokenIssued(uint256 tokenId, address indexed owner, string resource, uint256 expiry);\r\n    event TokenRevoked(uint256 tokenId);\r\n    event TokenDelegated(uint256 tokenId, address indexed newOwner);\r\n\r\n    constructor() {\r\n        admin = msg.sender; // Set the deployer as the admin\r\n    }\r\n\r\n    modifier onlyAdmin() {\r\n        require(msg.sender == admin, \"Only admin can revoke tokens\");\r\n        _;\r\n    }\r\n\r\n    function issueToken(address to, string memory resource, uint256 duration) public returns (uint256) {\r\n        uint256 tokenId = tokenCounter++;\r\n        tokens[tokenId] = Token(to, resource, block.timestamp + duration, true);\r\n        emit TokenIssued(tokenId, to, resource, block.timestamp + duration);\r\n        return tokenId;\r\n    }\r\n\r\n    function revokeToken(uint256 tokenId) public onlyAdmin {\r\n        Token storage token = tokens[tokenId];\r\n        \r\n        require(token.valid, \"Token already revoked\");\r\n        require(token.expiry > block.timestamp, \"Token already expired, cannot revoke\");\r\n\r\n        token.valid = false;\r\n        emit TokenRevoked(tokenId);\r\n    }\r\n    function getTokenExpiry(uint256 tokenId) public view returns (uint256) {\r\n    return tokens[tokenId].expiry;\r\n}\r\n\r\n\r\n    function isTokenValid(uint256 tokenId) public view returns (bool) {\r\n        Token storage token = tokens[tokenId];\r\n        if (!token.valid || token.expiry <= block.timestamp) {\r\n            return false; // Token is invalid if revoked or expired\r\n        }\r\n        return true;\r\n    }\r\n\r\n    function delegateToken(uint256 tokenId, address newOwner) public {\r\n        require(tokens[tokenId].valid, \"Token is not valid\");\r\n        tokens[tokenId].owner = newOwner;\r\n        emit TokenDelegated(tokenId, newOwner);\r\n    }\r\n}\r\n",
  "sourcePath": "D:\\Working\\Personel\\hOME\\Engineering\\blockchain-app\\contracts\\CapabilityToken.sol",
  "compiler": {
    "name": "solc",
    "version": "0.8.0+commit.c7dfd78e.Emscripten.clang"
  },
  "schemaVersion": "3.4.16",
  "updatedAt": "2025-03-05T16:09:08.487Z",
  "networkType": "ethereum",
  "devdoc": {
    "kind": "dev",
    "methods": {},
    "version": 1
  },
  "userdoc": {
    "kind": "user",
    "methods": {},
    "version": 1
  }
}